:10F800000A12D2B30E027D24D2C30E02F2B080FFE0
:10F810002800032092D31002023C824310021F42B0
:10F8200014021FE21002824F1202924210021402CE
:10F830001F4212021FC21402824F160292B3140218
:10F840000E24B290940018020A2C92531802B2901F
:10F85000940018020420E2D30E02F24304021F4275
:10F8600014021FF212021FB32524B2909400180252
:10F870001F2C92530C02A2920C02022882430C020B
:10F880001F420C020F930F241F830A241F83052499
:10F890001F830C20E2430402093CD2430402063CCD
:10F8A000E2430402033CF24003000402E2D30E02EE
:10F8B000824318025F420E020F111FB31B24E2C3E2
:10F8C0000E02D2C321004A437A903200112C3C40F0
:10F8D00000027D400600B012A6FA0D123D40F10173
:10F8E0001D83FE233D41003C5A537A903200EF2B9A
:10F8F000D2D3210082931402042082431802B2D290
:10F9000008023A413041B240805A2001F240CC0016
:10F910005700F24068005600F2D0200053004C43DC
:10F920003D4000027E400600B01274FB0E43F29090
:10F930005500000201241E430F43F290AA00050265
:10F9400001241F430EDF0E931A245E436E92082C8F
:10F95000B0123AFB4F4ECF4C00025E536E92F82B22
:10F96000F24055000002D2430102F240AA00050213
:10F970004C433D4000027E400600B01284F9D24361
:10F98000010230410A1209124B4E3F4040000F8BDA
:10F990004B4C0B9F2B3432C203433940401092B37F
:10F9A0002C01FD23B24042A52A01B24002A5280144
:10F9B000B24000A52C01C9430000B24040A5280177
:10F9C0000B434F4E0B9F0B2C0A4B0A5D4F4C0F5BAA
:10F9D0000F59EF4A00001B534F4E0B9FF52BB240BF
:10F9E00000A52801B24010A52C0132D230405AFDAA
:10F9F0000A1209123F40C8FD3F90C7FD19283F4039
:10FA0000CCFD3F90C9FD14283A40CCFD3A80C8FD9A
:10FA10003A5003000A110A113940C8FD3C497F4C95
:10FA20004F4F0F5F1F4FC6FD3D498F121A83F623BC
:10FA30003F4000003F90000008243A400000023C94
:10FA40003F4A8F123A900000FB2330405AFDE2D229
:10FA50002100F2F0DF002100F2F0BF002100003CA5
:10FA6000003C003C003C003CE2C22100E2D221000C
:10FA70000D123D40A4001D83FE233D410343E2C21D
:10FA80002100F2B080FF2000FC237C403000B01247
:10FA9000E4FBF2B080FF2000FC23F2F0BF00210065
:10FAA000E2D2210030410B4CE2C22100F2B080FFD3
:10FAB0002000FC237C407F00B012E4FB0C4DB01210
:10FAC000E4FB4E43063C4F4E0F5B6C4FB012E4FB21
:10FAD0005E534E9DF82BE2D221007C403500B012DF
:10FAE00012FDF2B22000FD27F2B22000FD233041CA
:10FAF0000F120E120D120C120B12C2432B00B1C0CA
:10FB0000D0000A00B2B01000080209207C40330087
:10FB1000B01212FDB01248FCB2D010000802F2D0B0
:10FB200048002700B2C20802B240D00260013B4147
:10FB30003C413D413E413F410013B2407018B0018D
:10FB4000B2400010B201E2D34A00B2D00300B001CB
:10FB50007F424F930C2492D3B00192B3B201FD23A4
:10FB600092B3B40101245CD34C5C5F83F423A2C341
:10FB7000B00130410A1209124B4E3F4040000F8B3A
:10FB80004B4C0B9F11343A4040100B434F4E0B9F90
:10FB90000B2C4F4C0F5B0F5A094B095DE94F0000CE
:10FBA0001B534F4E0B9FF52B30405AFDD243210083
:10FBB000F24065002200C2432A00F2432F00F240C7
:10FBC00080002900C2432E00C2432600F2D08000EC
:10FBD0002D00F2D080002C00F2F07F002B00D2D359
:10FBE000210030410F433F92142CF2F0DF0021003E
:10FBF0007CB080FF0420F2F0BF002100033CF2D073
:10FC0000400021004C5CF2D0200021001F533F92A5
:10FC1000EC2BF2F0DF0021003041B0124EFAB012AE
:10FC2000A0FCB01248FC7C403B00B01212FD7C40AE
:10FC30003A00B01212FD7C403300B01212FD7C403D
:10FC40003600B01212FD3041E2C22100F2B080FF56
:10FC50002000FC237C407E00B012E4FB0E433E9269
:10FC6000072C5C4EBAFDB012E4FB1E533E92F92BFA
:10FC7000E2D221003041B2B20802032032D0180093
:10FC800030417C403900B01212FDB2F0EFFF0802A3
:10FC9000F2F0B70027008243600132D0D800304133
:10FCA0000E433E902F00092C4C4E5D4E8AFDB01243
:10FCB000C0FC1E533E902F00F72BD2D31B023041C5
:10FCC000E2C22100F2B080FF2000FC23B012E4FB6E
:10FCD0000C4DB012E4FBE2D221003041B01206F923
:10FCE000B012ACFBB01228FDB0121AFC32D2B01226
:10FCF00000F8B01276FCFB3F31407E02B01278FD76
:10FD00000C930224B012F0F90C43B012DCFCB012D8
:10FD10007CFDE2C22100F2B080FF2000FC23B01283
:10FD2000E4FBE2D221003041B24010006201B24057
:10FD300010277201B240D002600130411F4C010017
:10FD40000F9305241D53CD43FFFF1F83FB23304139
:10FD50003441354136413741384139413A413041EA
:10FD6000B1C0D0000000C24323000013B1C0100096
:10FD70000000D2D30E0200131C4330410343FF3F67
:10FD800000130013001300130013292E0607D3914C
:10FD9000FF0405011009005D93B14D3B73A2F8010A
:10FDA0000730181D1CC700B2876BF8B610EA0A00AE
:10FDB000114100597F3F88310B00FE000000000018
:10FDC000000000001F003CFDC2FD0002FFFFFFFF1E
:10FDD000FFFFFFFFFFFFFFFFFFFFFFFFFFFFFFFF33
:10FDE000FFFFFFFFFFFFFFFFFFFFFFFFFFFFFFFF23
:10FDF000FFFFFFFFFFFFFFFFFFFFFFFFFFFFFFFF13
:10FE0000FFFFFFFFFFFFFFFFFFFFFFFFFFFFFFFF02
:10FFE000FFFFFFFF60FDF0FA86FD80FDFFFFFFFFD2
:10FFF00084FD6CFD88FDFFFFFFFFFFFF82FDF8FC25
:00000001FF
